{
  "_format": "hh-sol-artifact-1",
  "contractName": "UniswapOracle",
  "sourceName": "contracts/UniswapOracle.sol",
  "abi": [
    {
      "inputs": [
        {
          "internalType": "address",
          "name": "uniswapV2Pair",
          "type": "address"
        },
        {
          "components": [
            {
              "internalType": "bytes",
              "name": "block",
              "type": "bytes"
            },
            {
              "internalType": "bytes",
              "name": "accountProofNodesRlp",
              "type": "bytes"
            },
            {
              "internalType": "bytes",
              "name": "reserveAndTimestampProofNodesRlp",
              "type": "bytes"
            },
            {
              "internalType": "bytes",
              "name": "priceAccumulatorProofNodesRlp",
              "type": "bytes"
            }
          ],
          "internalType": "struct UniswapOracle.ProofData",
          "name": "proofData",
          "type": "tuple"
        },
        {
          "internalType": "bytes32",
          "name": "blockHash",
          "type": "bytes32"
        }
      ],
      "name": "getAccountStorageRoot",
      "outputs": [
        {
          "internalType": "bytes32",
          "name": "storageRootHash",
          "type": "bytes32"
        },
        {
          "internalType": "uint256",
          "name": "blockNumber",
          "type": "uint256"
        },
        {
          "internalType": "uint256",
          "name": "blockTimestamp",
          "type": "uint256"
        }
      ],
      "stateMutability": "view",
      "type": "function"
    },
    {
      "inputs": [
        {
          "internalType": "contract IUniswapV2Pair",
          "name": "uniswapV2Pair",
          "type": "address"
        },
        {
          "internalType": "bool",
          "name": "denominationTokenIs0",
          "type": "bool"
        }
      ],
      "name": "getCurrentPriceCumulativeLast",
      "outputs": [
        {
          "internalType": "uint256",
          "name": "priceCumulativeLast",
          "type": "uint256"
        }
      ],
      "stateMutability": "view",
      "type": "function"
    },
    {
      "inputs": [
        {
          "internalType": "contract IUniswapV2Pair",
          "name": "uniswapV2Pair",
          "type": "address"
        },
        {
          "internalType": "address",
          "name": "denominationToken",
          "type": "address"
        },
        {
          "components": [
            {
              "internalType": "bytes",
              "name": "block",
              "type": "bytes"
            },
            {
              "internalType": "bytes",
              "name": "accountProofNodesRlp",
              "type": "bytes"
            },
            {
              "internalType": "bytes",
              "name": "reserveAndTimestampProofNodesRlp",
              "type": "bytes"
            },
            {
              "internalType": "bytes",
              "name": "priceAccumulatorProofNodesRlp",
              "type": "bytes"
            }
          ],
          "internalType": "struct UniswapOracle.ProofData",
          "name": "proofData",
          "type": "tuple"
        },
        {
          "internalType": "bytes32",
          "name": "blockHash",
          "type": "bytes32"
        }
      ],
      "name": "getPrice",
      "outputs": [
        {
          "internalType": "uint256",
          "name": "price",
          "type": "uint256"
        },
        {
          "internalType": "uint256",
          "name": "blockNumber",
          "type": "uint256"
        }
      ],
      "stateMutability": "view",
      "type": "function"
    },
    {
      "inputs": [
        {
          "internalType": "contract IUniswapV2Pair",
          "name": "uniswapV2Pair",
          "type": "address"
        },
        {
          "internalType": "bool",
          "name": "denominationTokenIs0",
          "type": "bool"
        },
        {
          "components": [
            {
              "internalType": "bytes",
              "name": "block",
              "type": "bytes"
            },
            {
              "internalType": "bytes",
              "name": "accountProofNodesRlp",
              "type": "bytes"
            },
            {
              "internalType": "bytes",
              "name": "reserveAndTimestampProofNodesRlp",
              "type": "bytes"
            },
            {
              "internalType": "bytes",
              "name": "priceAccumulatorProofNodesRlp",
              "type": "bytes"
            }
          ],
          "internalType": "struct UniswapOracle.ProofData",
          "name": "proofData",
          "type": "tuple"
        },
        {
          "internalType": "bytes32",
          "name": "blockHash",
          "type": "bytes32"
        }
      ],
      "name": "getPriceRaw",
      "outputs": [
        {
          "internalType": "uint256",
          "name": "price",
          "type": "uint256"
        },
        {
          "internalType": "uint256",
          "name": "blockNumber",
          "type": "uint256"
        }
      ],
      "stateMutability": "view",
      "type": "function"
    },
    {
      "inputs": [],
      "name": "reserveTimestampSlotHash",
      "outputs": [
        {
          "internalType": "bytes32",
          "name": "",
          "type": "bytes32"
        }
      ],
      "stateMutability": "view",
      "type": "function"
    },
    {
      "inputs": [],
      "name": "token0Slot",
      "outputs": [
        {
          "internalType": "bytes32",
          "name": "",
          "type": "bytes32"
        }
      ],
      "stateMutability": "view",
      "type": "function"
    },
    {
      "inputs": [],
      "name": "token1Slot",
      "outputs": [
        {
          "internalType": "bytes32",
          "name": "",
          "type": "bytes32"
        }
      ],
      "stateMutability": "view",
      "type": "function"
    },
    {
      "inputs": [
        {
          "internalType": "contract IUniswapV2Pair",
          "name": "uniswapV2Pair",
          "type": "address"
        },
        {
          "internalType": "bytes32",
          "name": "slotHash",
          "type": "bytes32"
        },
        {
          "components": [
            {
              "internalType": "bytes",
              "name": "block",
              "type": "bytes"
            },
            {
              "internalType": "bytes",
              "name": "accountProofNodesRlp",
              "type": "bytes"
            },
            {
              "internalType": "bytes",
              "name": "reserveAndTimestampProofNodesRlp",
              "type": "bytes"
            },
            {
              "internalType": "bytes",
              "name": "priceAccumulatorProofNodesRlp",
              "type": "bytes"
            }
          ],
          "internalType": "struct UniswapOracle.ProofData",
          "name": "proofData",
          "type": "tuple"
        },
        {
          "internalType": "bytes32",
          "name": "blockHash",
          "type": "bytes32"
        }
      ],
      "name": "verifyBlockAndExtractReserveData",
      "outputs": [
        {
          "internalType": "uint256",
          "name": "blockTimestamp",
          "type": "uint256"
        },
        {
          "internalType": "uint256",
          "name": "blockNumber",
          "type": "uint256"
        },
        {
          "internalType": "uint256",
          "name": "priceCumulativeLast",
          "type": "uint256"
        },
        {
          "internalType": "uint112",
          "name": "reserve0",
          "type": "uint112"
        },
        {
          "internalType": "uint112",
          "name": "reserve1",
          "type": "uint112"
        },
        {
          "internalType": "uint256",
          "name": "reserveTimestamp",
          "type": "uint256"
        }
      ],
      "stateMutability": "view",
      "type": "function"
    }
  ],
  "bytecode": "0x608060405234801561001057600080fd5b50611971806100206000396000f3fe608060405234801561001057600080fd5b50600436106100885760003560e01c806349aa37f81161005b57806349aa37f814610113578063545f51a41461012657806392f4e5ef1461012e578063e46e26801461013657610088565b80630bf2cb261461008d5780632432a15f146100b857806326b8f9e0146100cd5780633157d452146100f2575b600080fd5b6100a061009b3660046113ea565b610149565b6040516100af939291906115fc565b60405180910390f35b6100c06101e2565b6040516100af91906115f3565b6100e06100db366004611529565b61020d565b6040516100af969594939291906118a9565b610105610100366004611440565b6102ae565b6040516100af92919061189b565b6101056101213660046114df565b6102cd565b6100c06103cd565b6100c06103df565b6100c06101443660046114a7565b6103f1565b60008060008061015d86600001518661059a565b80955081945082935050505060606101a0828960405160200161018091906115d6565b6040516020818303038152906040528051906020012089602001516106aa565b905060606101b56101b08361093a565b610983565b90506101d4816002815181106101c757fe5b6020026020010151610a62565b955050505093509350939050565b60096040516020016101f491906115f3565b6040516020818303038152906040528051906020012081565b60008060008060008060006102238b8a8a610149565b809950819850829350505050610246610241828c8c606001516106aa565b610a73565b9450600061028361024183600860405160200161026391906115f3565b604051602081830303815290604052805190602001208d604001516106aa565b979c969b50949950506001600160701b038087169850607087901c169650505060e09390931c925050565b60008060016102bf878287876102cd565b925092505094509492505050565b600080600080600080600061033e8b8b61030e5760096040516020016102f391906115f3565b60405160208183030381529060405280519060200120610337565b600a60405160200161032091906115f3565b604051602081830303815290604052805190602001205b8b8b61020d565b939a509398509096509450909250905080850380156103a1576103918b6103655784610367565b835b61037c8d6103755785610377565b865b610a86565b6001600160e01b03169063ffffffff610a9816565b6001600160e01b03168102850194505b50505042839003905080826103b68b8b6103f1565b03816103be57fe5b04945050505094509492505050565b60086040516020016101f491906115f3565b600a6040516020016101f491906115f3565b600080600080856001600160a01b0316630902f1ac6040518163ffffffff1660e01b815260040160606040518083038186803b15801561043057600080fd5b505afa158015610444573d6000803e3d6000fd5b505050506040513d601f19601f82011682018060405250810190610468919061156a565b925092509250846104e957856001600160a01b0316635909c0d56040518163ffffffff1660e01b815260040160206040518083038186803b1580156104ac57600080fd5b505afa1580156104c0573d6000803e3d6000fd5b505050506040513d601f19601f820116820180604052508101906104e491906115be565b61055a565b856001600160a01b0316635a3d54936040518163ffffffff1660e01b815260040160206040518083038186803b15801561052257600080fd5b505afa158015610536573d6000803e3d6000fd5b505050506040513d601f19601f8201168201806040525081019061055a91906115be565b935063ffffffff81164203610583866105735784610575565b835b61037c886103755785610377565b6001600160e01b0316029390930195945050505050565b60008060006060610604565b62461bcd60e51b60005260206004528160245280604452816044016000fd5b600080825160001a60808110600181146105e45780156105f0576105fd565b849350600192506105fd565b6001850193506080820392505b5050915091565b855160208701966101e0810190607b0161061d826105c5565b019150610629826105c5565b8082019350610637846105c5565b019350610643846105c5565b01935061064f846105c5565b835160088402610100031c9850868d209750878c1461068a5761068a6014730c4d8dec6d690c2e6d040427a40e4d8e090c2e6d60631b6105a6565b84519a50815160088202610100031c995050505050505050509250925092565b60606106b461128f565b6106bd8361093a565b905060606106ca82610983565b6040805160218082526060828101909352929350909182918991600091849160208201818036833701905050905089602182015261070781610abd565b9050610717565b60405180910390fd5b6107348660008151811061072757fe5b6020026020010151610c29565b945060005b865181101561091a5781518311156107635760405162461bcd60e51b815260040161070e90611844565b61077287828151811061072757fe5b80516020820120909650841461078785610ca3565b6107978780519060200120610ca3565b8651602088012085146107bc5760405162461bcd60e51b815260040161070e906116cc565b6107d88883815181106107cb57fe5b6020026020010151610983565b955085516011141561087357825184141561081a5761080a866010815181106107fd57fe5b6020026020010151610ce9565b9950505050505050505050610933565b600083858151811061082857fe5b016020015160f81c905060108111156108535760405162461bcd60e51b815260040161070e906116fc565b610865878260ff16815181106101c757fe5b955060018501945050610911565b8551600214156108f957610897610890876000815181106107fd57fe5b8486610d66565b83519401938414156108b35761080a866001815181106107fd57fe5b6108c6610890876000815181106107fd57fe5b6108e25760405162461bcd60e51b815260040161070e90611640565b6108f2866001815181106101c757fe5b9450610911565b60405162461bcd60e51b815260040161070e90611725565b50600101610739565b5060405162461bcd60e51b815260040161070e9061186b565b9392505050565b61094261128f565b815180610964575050604080518082019091526000808252602082015261097e565b604080518082019091526020848101825281019190915290505b919050565b606061098e82610e44565b6109aa5760405162461bcd60e51b815260040161070e906117b9565b60006109b583610e6b565b90506060816001600160401b03811180156109cf57600080fd5b50604051908082528060200260200182016040528015610a0957816020015b6109f661128f565b8152602001906001900390816109ee5790505b509050610a146112a9565b610a1d85610ecf565b905060005b610a2b82610f20565b15610a5857610a3982610f3f565b838281518110610a4557fe5b6020908102919091010152600101610a22565b5090949350505050565b6000610a6d82610f96565b92915050565b6000610a6d610a818361093a565b610f96565b6001600160701b0316600160701b0290565b60006001600160701b0382166001600160e01b03841681610ab557fe5b049392505050565b606080825160001415610ad157905061097e565b600080610adf60008661101f565b60f81c90506001811480610af657508060ff166003145b15610b845760018551600202036001600160401b0381118015610b1857600080fd5b506040519080825280601f01601f191660200182016040528015610b43576020820181803683370190505b5092506000610b5360018761101f565b90508084600081518110610b6357fe5b60200101906001600160f81b031916908160001a9053506001925050610bd4565b60028551600202036001600160401b0381118015610ba157600080fd5b506040519080825280601f01601f191660200182016040528015610bcc576020820181803683370190505b509250600091505b60ff82165b8351811015610c1f57610bf48360ff1682036002018761101f565b848281518110610c0057fe5b60200101906001600160f81b031916908160001a905350600101610bd9565b5091949350505050565b602081015160609080610c4e5760405162461bcd60e51b815260040161070e9061175c565b6060816001600160401b0381118015610c6657600080fd5b506040519080825280601f01601f191660200182016040528015610c91576020820181803683370190505b5090506109338460000151828461107c565b610ce681604051602401610cb791906115f3565b60408051601f198184030181529190526020810180516001600160e01b03166327b7cf8560e01b1790526110ba565b50565b6060610cf4826110db565b610cfd57600080fd5b600080610d0984611101565b915091506060816001600160401b0381118015610d2557600080fd5b506040519080825280601f01601f191660200182016040528015610d50576020820181803683370190505b509050610d5e83828461107c565b949350505050565b6000806060610d7486610abd565b9050606081516001600160401b0381118015610d8f57600080fd5b506040519080825280601f01601f191660200182016040528015610dba576020820181803683370190505b509050845b82518601811015610e14576000878281518110610dd857fe5b602001015160f81c60f81b9050808388840381518110610df457fe5b60200101906001600160f81b031916908160001a90535050600101610dbf565b50808051906020012082805190602001201415610e345781519250610e39565b600092505b509095945050505050565b6000816020015160001415610e5b5750600061097e565b50515160c060009190911a101590565b6000610e7682610e44565b610e825750600061097e565b81518051600090811a9190610e9685611183565b6020860151908301915082016000190160005b818311610ec557610eb983611201565b90920191600101610ea9565b9695505050505050565b610ed76112a9565b610ee082610e44565b610efc5760405162461bcd60e51b815260040161070e9061169c565b6000610f0783611183565b8351019050610f146112a9565b92835260208301525090565b6000610f2a61128f565b50508051602080820151915192015191011190565b610f4761128f565b610f5082610f20565b610f6c5760405162461bcd60e51b815260040161070e90611670565b60208201516000610f7c82611201565b828452602080850182905292019390910192909252919050565b6000610fa1826110db565b610fbd5760405162461bcd60e51b815260040161070e9061178b565b600080610fc984611101565b915091506020811115610fee5760405162461bcd60e51b815260040161070e90611612565b8061100b5760405162461bcd60e51b815260040161070e90611816565b90516020919091036101000a900492915050565b6000600283061561105057601082600285048151811061103b57fe5b016020015160f81c8161104a57fe5b06611072565b601082600285048151811061106157fe5b016020015160f81c8161107057fe5b045b60f81b9392505050565b6020601f820104836020840160005b838110156110a75760208102838101519083015260010161108b565b5050505060008251602001830152505050565b80516a636f6e736f6c652e6c6f67602083016000808483855afa5050505050565b60008160200151600014156110f25750600061097e565b50515160c060009190911a1090565b60008061110d836110db565b6111295760405162461bcd60e51b815260040161070e906117e7565b8251805160001a9060808210156111475792506001915061117e9050565b60b882101561116557600185602001510392508060010193506105fd565b602085015182820160b51901945082900360b601925050505b915091565b600081602001516000141561119a5750600061097e565b8151805160001a9060808210156111b65760009250505061097e565b60b88210806111d1575060c082101580156111d1575060f882105b156111e15760019250505061097e565b60c08210156111f6575060b51901905061097e565b5060f5190192915050565b8051600090811a608081101561121a5760019150611289565b60b881101561122f57607e1981019150611289565b60c081101561125857600183015160b76020839003016101000a9004810160b519019150611289565b60f881101561126d5760be1981019150611289565b600183015160f76020839003016101000a9004810160f5190191505b50919050565b604051806040016040528060008152602001600081525090565b60405180604001604052806112bc61128f565b8152602001600081525090565b600082601f8301126112d9578081fd5b81356001600160401b038111156112ee578182fd5b611301601f8201601f19166020016118dd565b915080825283602082850101111561131857600080fd5b8060208401602084013760009082016020015292915050565b600060808284031215611342578081fd5b61134c60806118dd565b905081356001600160401b038082111561136557600080fd5b611371858386016112c9565b8352602084013591508082111561138757600080fd5b611393858386016112c9565b602084015260408401359150808211156113ac57600080fd5b6113b8858386016112c9565b604084015260608401359150808211156113d157600080fd5b506113de848285016112c9565b60608301525092915050565b6000806000606084860312156113fe578283fd5b833561140981611903565b925060208401356001600160401b03811115611423578283fd5b61142f86828701611331565b925050604084013590509250925092565b60008060008060808587031215611455578081fd5b843561146081611903565b9350602085013561147081611903565b925060408501356001600160401b0381111561148a578182fd5b61149687828801611331565b949793965093946060013593505050565b600080604083850312156114b9578182fd5b82356114c481611903565b915060208301356114d481611918565b809150509250929050565b600080600080608085870312156114f4578384fd5b84356114ff81611903565b9350602085013561150f81611918565b925060408501356001600160401b0381111561148a578283fd5b6000806000806080858703121561153e578384fd5b843561154981611903565b93506020850135925060408501356001600160401b0381111561148a578283fd5b60008060006060848603121561157e578283fd5b835161158981611926565b602085015190935061159a81611926565b604085015190925063ffffffff811681146115b3578182fd5b809150509250925092565b6000602082840312156115cf578081fd5b5051919050565b60609190911b6bffffffffffffffffffffffff1916815260140190565b90815260200190565b9283526020830191909152604082015260600190565b602080825260149082015273526c702e736f6c3a526c703a746f55696e743a3360601b604082015260600190565b602080825260169082015275696e76616c696420657874656e73696f6e206e6f646560501b604082015260600190565b602080825260129082015271526c702e736f6c3a526c703a6e6578743a3160701b604082015260600190565b602080825260169082015275526c702e736f6c3a526c703a6974657261746f723a3160501b604082015260600190565b6020808252601690820152756e6f646520646f65736e2774206d61746368206b657960501b604082015260600190565b6020808252600f908201526e6e6962626c6520746f6f206c6f6e6760881b604082015260600190565b60208082526017908201527f756e6578706563746564206c656e677468206172726179000000000000000000604082015260600190565b6020808252601590820152742936381739b7b61d2936381d3a37a13cba32b99d1960591b604082015260600190565b602080825260149082015273526c702e736f6c3a526c703a746f55696e743a3160601b604082015260600190565b602080825260149082015273526c702e736f6c3a526c703a746f4c6973743a3160601b604082015260600190565b602080825260159082015274526c702e736f6c3a526c703a5f6465636f64653a3160581b604082015260600190565b602080825260149082015273149b1c0b9cdbdb0e949b1c0e9d1bd55a5b9d0e8d60621b604082015260600190565b6020808252600d908201526c50617468206f766572666c6f7760981b604082015260600190565b6020808252601690820152756e6f7420656e6f7567682070726f6f66206e6f64657360501b604082015260600190565b918252602082015260400190565b958652602086019490945260408501929092526001600160701b03908116606085015216608083015260a082015260c00190565b6040518181016001600160401b03811182821017156118fb57600080fd5b604052919050565b6001600160a01b0381168114610ce657600080fd5b8015158114610ce657600080fd5b6001600160701b0381168114610ce657600080fdfea264697066735822122013df06cd8c4dbc23bcff9011fda4b57db5938aef56b1c352453e72059d4c1fca64736f6c63430006080033",
  "linkReferences": {},
  "deployedLinkReferences": {}
}