{
  "_format": "hh-sol-artifact-1",
  "contractName": "UniswapOracle",
  "sourceName": "contracts/UniswapOracle.sol",
  "abi": [
    {
      "inputs": [
        {
          "internalType": "address",
          "name": "uniswapV2Pair",
          "type": "address"
        },
        {
          "components": [
            {
              "internalType": "bytes",
              "name": "block",
              "type": "bytes"
            },
            {
              "internalType": "bytes",
              "name": "accountProofNodesRlp",
              "type": "bytes"
            },
            {
              "internalType": "bytes",
              "name": "reserveAndTimestampProofNodesRlp",
              "type": "bytes"
            },
            {
              "internalType": "bytes",
              "name": "priceAccumulatorProofNodesRlp",
              "type": "bytes"
            }
          ],
          "internalType": "struct UniswapOracle.ProofData",
          "name": "proofData",
          "type": "tuple"
        },
        {
          "internalType": "bytes32",
          "name": "blockHash",
          "type": "bytes32"
        }
      ],
      "name": "getAccountStorageRoot",
      "outputs": [
        {
          "internalType": "bytes32",
          "name": "storageRootHash",
          "type": "bytes32"
        },
        {
          "internalType": "uint256",
          "name": "blockNumber",
          "type": "uint256"
        },
        {
          "internalType": "uint256",
          "name": "blockTimestamp",
          "type": "uint256"
        }
      ],
      "stateMutability": "view",
      "type": "function"
    },
    {
      "inputs": [],
      "name": "reserveTimestampSlotHash",
      "outputs": [
        {
          "internalType": "bytes32",
          "name": "",
          "type": "bytes32"
        }
      ],
      "stateMutability": "view",
      "type": "function"
    },
    {
      "inputs": [],
      "name": "token0Slot",
      "outputs": [
        {
          "internalType": "bytes32",
          "name": "",
          "type": "bytes32"
        }
      ],
      "stateMutability": "view",
      "type": "function"
    },
    {
      "inputs": [],
      "name": "token1Slot",
      "outputs": [
        {
          "internalType": "bytes32",
          "name": "",
          "type": "bytes32"
        }
      ],
      "stateMutability": "view",
      "type": "function"
    }
  ],
  "bytecode": "0x608060405234801561001057600080fd5b5061127f806100206000396000f3fe608060405234801561001057600080fd5b506004361061004c5760003560e01c80630bf2cb26146100515780632432a15f1461007c578063545f51a41461009157806392f4e5ef14610099575b600080fd5b61006461005f366004610e52565b6100a1565b60405161007393929190610f6b565b60405180910390f35b61008461013a565b6040516100739190610f62565b610084610165565b610084610177565b6000806000806100b5866000015186610189565b80955081945082935050505060606100f882896040516020016100d89190610f45565b604051602081830303815290604052805190602001208960200151610299565b9050606061010d61010883610505565b61054e565b905061012c8160028151811061011f57fe5b602002602001015161062e565b955050505093509350939050565b600960405160200161014c9190610f62565b6040516020818303038152906040528051906020012081565b600860405160200161014c9190610f62565b600a60405160200161014c9190610f62565b600080600060606101f3565b62461bcd60e51b60005260206004528160245280604452816044016000fd5b600080825160001a60808110600181146101d35780156101df576101ec565b849350600192506101ec565b6001850193506080820392505b5050915091565b855160208701966101e0810190607b0161020c826101b4565b019150610218826101b4565b8082019350610226846101b4565b019350610232846101b4565b01935061023e846101b4565b835160088402610100031c9850868d209750878c14610279576102796014730c4d8dec6d690c2e6d040427a40e4d8e090c2e6d60631b610195565b84519a50815160088202610100031c995050505050505050509250925092565b60606102a3610daf565b6102ac83610505565b905060606102b98261054e565b604080516021808252606082810190935292935090918291899160009184916020820181803683370190505090508960218201526102f68161063f565b9050610306565b60405180910390fd5b6103238660008151811061031657fe5b60200260200101516107ad565b945060005b86518110156104e55781518311156103525760405162461bcd60e51b81526004016102fd906111b3565b61036187828151811061031657fe5b9550858051906020012084146103895760405162461bcd60e51b81526004016102fd9061103b565b6103a587828151811061039857fe5b602002602001015161054e565b945084516011141561043f5781518314156103e6576103d7856010815181106103ca57fe5b6020026020010151610828565b985050505050505050506104fe565b60008284815181106103f457fe5b016020015160f81c9050601081111561041f5760405162461bcd60e51b81526004016102fd9061106b565b610431868260ff168151811061011f57fe5b9450600184019350506104dd565b8451600214156104c55761046361045c866000815181106103ca57fe5b83856108a6565b825193019283141561047f576103d7856001815181106103ca57fe5b61049261045c866000815181106103ca57fe5b6104ae5760405162461bcd60e51b81526004016102fd90610faf565b6104be8560018151811061011f57fe5b93506104dd565b60405162461bcd60e51b81526004016102fd90611094565b600101610328565b5060405162461bcd60e51b81526004016102fd906111da565b9392505050565b61050d610daf565b81518061052f5750506040805180820190915260008082526020820152610549565b604080518082019091526020848101825281019190915290505b919050565b606061055982610985565b6105755760405162461bcd60e51b81526004016102fd90611128565b6000610580836109ac565b905060608167ffffffffffffffff8111801561059b57600080fd5b506040519080825280602002602001820160405280156105d557816020015b6105c2610daf565b8152602001906001900390816105ba5790505b5090506105e0610dc9565b6105e985610a10565b905060005b6105f782610a61565b156106245761060582610a80565b83828151811061061157fe5b60209081029190910101526001016105ee565b5090949350505050565b600061063982610ad7565b92915050565b606080825160001415610653579050610549565b600080610661600086610b60565b60f81c9050600181148061067857508060ff166003145b1561070757600185516002020367ffffffffffffffff8111801561069b57600080fd5b506040519080825280601f01601f1916602001820160405280156106c6576020820181803683370190505b50925060006106d6600187610b60565b905080846000815181106106e657fe5b60200101906001600160f81b031916908160001a9053506001925050610758565b600285516002020367ffffffffffffffff8111801561072557600080fd5b506040519080825280601f01601f191660200182016040528015610750576020820181803683370190505b509250600091505b60ff82165b83518110156107a3576107788360ff16820360020187610b60565b84828151811061078457fe5b60200101906001600160f81b031916908160001a90535060010161075d565b5091949350505050565b6020810151606090806107d25760405162461bcd60e51b81526004016102fd906110cb565b60608167ffffffffffffffff811180156107eb57600080fd5b506040519080825280601f01601f191660200182016040528015610816576020820181803683370190505b5090506104fe84600001518284610bbd565b606061083382610bfb565b61083c57600080fd5b60008061084884610c21565b9150915060608167ffffffffffffffff8111801561086557600080fd5b506040519080825280601f01601f191660200182016040528015610890576020820181803683370190505b50905061089e838284610bbd565b949350505050565b60008060606108b48661063f565b90506060815167ffffffffffffffff811180156108d057600080fd5b506040519080825280601f01601f1916602001820160405280156108fb576020820181803683370190505b509050845b8251860181101561095557600087828151811061091957fe5b602001015160f81c60f81b905080838884038151811061093557fe5b60200101906001600160f81b031916908160001a90535050600101610900565b50808051906020012082805190602001201415610975578151925061097a565b600092505b509095945050505050565b600081602001516000141561099c57506000610549565b50515160c060009190911a101590565b60006109b782610985565b6109c357506000610549565b81518051600090811a91906109d785610ca3565b6020860151908301915082016000190160005b818311610a06576109fa83610d21565b909201916001016109ea565b9695505050505050565b610a18610dc9565b610a2182610985565b610a3d5760405162461bcd60e51b81526004016102fd9061100b565b6000610a4883610ca3565b8351019050610a55610dc9565b92835260208301525090565b6000610a6b610daf565b50508051602080820151915192015191011190565b610a88610daf565b610a9182610a61565b610aad5760405162461bcd60e51b81526004016102fd90610fdf565b60208201516000610abd82610d21565b828452602080850182905292019390910192909252919050565b6000610ae282610bfb565b610afe5760405162461bcd60e51b81526004016102fd906110fa565b600080610b0a84610c21565b915091506020811115610b2f5760405162461bcd60e51b81526004016102fd90610f81565b80610b4c5760405162461bcd60e51b81526004016102fd90611185565b90516020919091036101000a900492915050565b60006002830615610b91576010826002850481518110610b7c57fe5b016020015160f81c81610b8b57fe5b06610bb3565b6010826002850481518110610ba257fe5b016020015160f81c81610bb157fe5b045b60f81b9392505050565b6020601f820104836020840160005b83811015610be857602081028381015190830152600101610bcc565b5050505060008251602001830152505050565b6000816020015160001415610c1257506000610549565b50515160c060009190911a1090565b600080610c2d83610bfb565b610c495760405162461bcd60e51b81526004016102fd90611156565b8251805160001a906080821015610c6757925060019150610c9e9050565b60b8821015610c8557600185602001510392508060010193506101ec565b602085015182820160b51901945082900360b601925050505b915091565b6000816020015160001415610cba57506000610549565b8151805160001a906080821015610cd657600092505050610549565b60b8821080610cf1575060c08210158015610cf1575060f882105b15610d0157600192505050610549565b60c0821015610d16575060b519019050610549565b5060f5190192915050565b8051600090811a6080811015610d3a5760019150610da9565b60b8811015610d4f57607e1981019150610da9565b60c0811015610d7857600183015160b76020839003016101000a9004810160b519019150610da9565b60f8811015610d8d5760be1981019150610da9565b600183015160f76020839003016101000a9004810160f5190191505b50919050565b604051806040016040528060008152602001600081525090565b6040518060400160405280610ddc610daf565b8152602001600081525090565b600082601f830112610df9578081fd5b813567ffffffffffffffff811115610e0f578182fd5b610e22601f8201601f191660200161120a565b9150808252836020828501011115610e3957600080fd5b8060208401602084013760009082016020015292915050565b600080600060608486031215610e66578283fd5b8335610e7181611231565b9250602084013567ffffffffffffffff80821115610e8d578384fd5b81860160808189031215610e9f578485fd5b610ea9608061120a565b9250803582811115610eb9578586fd5b610ec589828401610de9565b845250602081013582811115610ed9578586fd5b610ee589828401610de9565b602085015250604081013582811115610efc578586fd5b610f0889828401610de9565b604085015250606081013582811115610f1f578586fd5b610f2b89828401610de9565b606085015250505080925050604084013590509250925092565b60609190911b6bffffffffffffffffffffffff1916815260140190565b90815260200190565b9283526020830191909152604082015260600190565b602080825260149082015273526c702e736f6c3a526c703a746f55696e743a3360601b604082015260600190565b602080825260169082015275696e76616c696420657874656e73696f6e206e6f646560501b604082015260600190565b602080825260129082015271526c702e736f6c3a526c703a6e6578743a3160701b604082015260600190565b602080825260169082015275526c702e736f6c3a526c703a6974657261746f723a3160501b604082015260600190565b6020808252601690820152756e6f646520646f65736e2774206d61746368206b657960501b604082015260600190565b6020808252600f908201526e6e6962626c6520746f6f206c6f6e6760881b604082015260600190565b60208082526017908201527f756e6578706563746564206c656e677468206172726179000000000000000000604082015260600190565b6020808252601590820152742936381739b7b61d2936381d3a37a13cba32b99d1960591b604082015260600190565b602080825260149082015273526c702e736f6c3a526c703a746f55696e743a3160601b604082015260600190565b602080825260149082015273526c702e736f6c3a526c703a746f4c6973743a3160601b604082015260600190565b602080825260159082015274526c702e736f6c3a526c703a5f6465636f64653a3160581b604082015260600190565b602080825260149082015273149b1c0b9cdbdb0e949b1c0e9d1bd55a5b9d0e8d60621b604082015260600190565b6020808252600d908201526c50617468206f766572666c6f7760981b604082015260600190565b6020808252601690820152756e6f7420656e6f7567682070726f6f66206e6f64657360501b604082015260600190565b60405181810167ffffffffffffffff8111828210171561122957600080fd5b604052919050565b6001600160a01b038116811461124657600080fd5b5056fea2646970667358221220df47db8ee198a792f79a400f3b8c72ba6907e12b59c0dc6d27f5a52c8a57867d64736f6c63430006080033",
  "linkReferences": {},
  "deployedLinkReferences": {}
}